:020000040000FA
:040000009EEF08F077
:04000800EEEF08F01F
:06002A0000C0E5FF01C06B
:10003000E5FF02C0E5FF03C0E5FF04C0E5FF9280D5
:100040009284928E80A004D080A402D080BE30D151
:10005000FCEC08F0B8C000F0B9C001F0BAC002F082
:10006000BBC003F0002AD8B0012AD8B0022AD8B009
:10007000032A00500001B86F0150B96F0250BA6FE7
:100080000350BB6F80A004D080B418D080AE16D0CF
:1000900080B008D0010E0001D96F0001D86F0001B7
:1000A000D76F07D0780E0001D96F0001D86F00011B
:1000B000D76F43EC06F0CEEC07F0FBD7006A005098
:1000C000060DF3CF01F00150F0080001D76F000ECC
:1000D000026EA00E016E800E036E00500126E86ACB
:1000E0000222E86A032201C0E9FF02C0F3FF0350C5
:1000F0007EEC08F0016E01380F0B100DF3CF01F00C
:100100000150F0080001D86F000E026EA00E016EC3
:10011000800E036E00500126E86A0222E86A03227C
:1001200001C0E9FF02C0F3FF03507EEC08F0016E4E
:100130000F0E01160150100DF3CF01F00150F00821
:100140000001D96F80B02FD07C0E0001CD5D2BE275
:10015000016A80B0012A0150D880E866D890016A0F
:100160000136CE5101181FE0FCEC08F0A4C001F0EC
:10017000A5C002F0A6C003F0A7C004F0012AD8B0C1
:10018000022AD8B0032AD8B0042A01500001A46F73
:100190000250A56F0350A66F0450A76F002A240ECB
:1001A000005C01E3006A80BE30D07C0E0001D15DAE
:1001B0002CE2016A80BE012A0150D880E866D890FE
:1001C000016A0136D251011820E0FCEC08F0ACC005
:1001D00001F0ADC002F0AEC003F0AFC004F0012AE0
:1001E000D8B0022AD8B0032AD8B0042A015000019E
:1001F000AC6F0250AD6F0350AE6F0450AF6F00068E
:10020000240E005C02E3230E006E016A80B0012A16
:100210000150D880E866D890016A01360001CE51BD
:1002200001180EE07F0E0001CD6F016A80B0012A37
:100230000150D880E866D890016A01360150CE6F2F
:10024000CDC001F0015004E0010601500001CD6F66
:10025000016A80BE012A0150D880E866D890016A00
:1002600001360001D25101180EE07F0E0001D16F5E
:10027000016A80BE012A0150D880E866D890016AE0
:1002800001360150D26FD1C001F0015004E00106E7
:1002900001500001D16F43EC06F001680150D8B461
:1002A0000ED70106CEEC07F0050EAAEC08F0F6D743
:1002B000E4CF04F0E4CF03F0E4CF02F0E4CF01F0A8
:1002C000E4CF00F0120000C0E5FF01C0E5FF02C06E
:1002D000E5FF03C0E5FF80B041D07C0E0001CD5D9D
:1002E000D8B03CD0006A80B0002A0050D880E866C0
:1002F000D890006A0036CE51001830E0C0EC08F00B
:10030000C0EC08F0C0EC08F0C0EC08F0C0EC08F05D
:10031000C0EC08F0C0EC08F0C0EC08F0C0EC08F04D
:10032000C0EC08F0FCEC08F0A4C000F0A5C001F09F
:10033000A6C002F0A7C003F0002AD8B0012AD8B0A6
:10034000022AD8B0032A00500001A46F0150A56F03
:100350000250A66F0350A76F69EC05F080B434D04B
:100360007C0E0001CF5D30E2006A80B4002A0050AC
:10037000D880E866D890006A0036D051001824E092
:100380008FEC08F08FEC08F08FEC08F08FEC08F0A1
:10039000FCEC08F0A8C000F0A9C001F0AAC002F06F
:1003A000ABC003F0002AD8B0012AD8B0022AD8B0D6
:1003B000032A00500001A86F0150A96F0250AA6FD4
:1003C0000350AB6F69EC05F080BE2ED07C0E0001AF
:1003D000D15D2AE2006A80BE002A0050D880E8661B
:1003E000D890006A0036D25100181EE0F9EC07F0F0
:1003F000FCEC08F0ACC000F0ADC001F0AEC002F003
:10040000AFC003F0002AD8B0012AD8B0022AD8B071
:10041000032A00500001AC6F0150AD6F0250AE6F67
:100420000350AF6F69EC05F0006A80B0002A0050FD
:10043000D880E866D890006A00360001CE510018D6
:100440000EE07F0E0001CD6F006A80B0002A0050E0
:10045000D880E866D890006A00360050CE6FCDC0D4
:1004600000F0005004E0000600500001CD6F006A6B
:1004700080B4002A0050D880E866D890006A003620
:100480000001D05100180EE07F0E0001CF6F006A0E
:1004900080B4002A0050D880E866D890006A003600
:1004A0000050D06FCFC000F0005004E000060050B4
:1004B0000001CF6F006A80BE002A0050D880E86635
:1004C000D890006A00360001D25100180EE07F0E6D
:1004D0000001D16F006A80BE002A0050D880E86613
:1004E000D890006A00360050D26FD1C000F00050A2
:1004F00004E0000600500001D16FE4CF03F0E4CF28
:1005000002F0E4CF01F0E4CF00F0120000C0E5FFFC
:1005100001C0E5FF02C0E5FF03C0E5FF04C0E5FF41
:1005200005C0E5FF00EC04F00001CA51040DF3CF53
:1005300000F00050F0080001D96F0001CB51040D0C
:10054000F3CF00F00050F0080001D86F0001CC514B
:100550000A0DF3CF00F00050F0080001D76FD9C0AA
:1005600000F0016A0050F008006E000E0156E56AC6
:100570003C0EE56E0150E56E0050E56E13EC03F0A5
:10058000026E040EE126D8C003F00250035C0001A5
:10059000D86FD8C002F0036A0250F008026E000E55
:1005A0000356E56A180EE56E0350E56E0250E56EDF
:1005B00013EC03F0046E040EE126D7C005F00450DE
:1005C000055C0001D76F080E0001C76FE56A3C0E9D
:1005D000E56E0150E56E0050E56E8EEC03F0006EA6
:1005E000040EE12600503C080001C66FE56A180EB3
:1005F000E56E0350E56E0250E56E8EEC03F0006E82
:10060000040EE126005018080001C56FE4CF05F084
:10061000E4CF04F0E4CF03F0E4CF02F0E4CF01F044
:10062000E4CF00F01200D9CFE5FFE1CFD9FF00C041
:10063000E5FF01C0E5FF02C0E5FF03C0E5FF04C020
:10064000E5FF05C0E5FF06C0E5FF07C0E5FF020EB8
:10065000DBCF00F0030EDBCF01F0040EDBCF02F0A6
:10066000050EDBCF03F0D88001AED890046A0436C3
:10067000045007E0011C066E001C056E054A062AA0
:1006800004D000C005F001C006F005C000F006C0AF
:1006900001F0D88003AED890056A0536055007E012
:1006A000031C076E021C066E064A072A04D002C00D
:1006B00006F003C007F00750E56E0650E56E0150E6
:1006C000E56E0050E56EC0EC04F0006EF3CF01F073
:1006D000040EE1260550041A04500AE0011C036EC2
:1006E000001C026E024A032A03C0F3FF025003D02B
:1006F00001C0F3FF0050E4CF07F0E4CF06F0E4CFF1
:1007000005F0E4CF04F0E4CF03F0E4CF02F0E4CF4F
:1007100001F0E4CF00F0E4CFD9FF1200D9CFE5FF1C
:10072000E1CFD9FF00C0E5FF01C0E5FF02C0E5FF52
:1007300003C0E5FF04C0E5FF05C0E5FF06C0E5FF17
:10074000020EDBCF00F0030EDBCF01F0040EDBCF97
:1007500002F0050EDBCF03F0D88001AED890046A1A
:100760000436045007E0011C066E001C056E054AA5
:10077000062A04D000C005F001C006F005C000F054
:1007800006C001F0D88003AED89007E3031C066EC4
:10079000021C056E054A062A04D002C005F003C0FB
:1007A00006F00650E56E0550E56E0150E56E00500E
:1007B000E56E64EC04F0006EF3CF01F0040EE12668
:1007C00004500AE0011C036E001C026E024A032A58
:1007D00003C0F3FF025003D001C0F3FF0050E4CF89
:1007E00006F0E4CF05F0E4CF04F0E4CF03F0E4CF6B
:1007F00002F0E4CF01F0E4CF00F0E4CFD9FF120023
:1008000000C0E5FF01C0E5FF000EE56A77EC07F0E8
:10081000E12AE56E4AEC08F0E12A0001CA6F010EF8
:10082000E56E77EC07F0E12AE56E4AEC08F0E12A84
:100830000001CB6F020EE56E77EC07F0E12AE56E62
:100840004AEC08F0E12A0001CC6F110EE56E77EC5E
:1008500007F0006EE12A0001B051800FF36E0050E6
:10086000800FF35C0EE2110EE56E77EC07F0E12AE3
:10087000016A0001B06F0150B16BB26BB36BFCEC5D
:1008800008F0110EE56E77EC07F0006EE12A00012A
:10089000B451016E0050800FF36E0150800FF35C75
:1008A0000EE2110EE56E77EC07F0E12A016A000115
:1008B000B46F0150B56BB66BB76BFCEC08F0E4CFCE
:1008C00001F0E4CF00F01200D9CFE5FFE1CFD9FF6E
:1008D00000C0E5FF01C0E5FF02C0E5FF03C0E5FF82
:1008E00004C0E5FF05C0E5FF06C0E5FF020EDBCF53
:1008F00000F0030EDBCF01F0040EDBCF02F0050E9B
:10090000DBCF03F0046A056A0334066A063606B0D4
:1009100011D00250022603360350015C02E102505E
:10092000005C04E2D8900332023204D0052A05C0EC
:1009300004F0EAD70350015C02E10250005C04E3DA
:100940000250005E0350015AD8900332023204C0B4
:1009500005F004060550EEE101C0F3FF0050E4CFBE
:1009600006F0E4CF05F0E4CF04F0E4CF03F0E4CFE9
:1009700002F0E4CF01F0E4CF00F0E4CFD9FF1200A1
:10098000D9CFE5FFE1CFD9FF00C0E5FF01C0E5FF0A
:1009900002C0E5FF03C0E5FF04C0E5FF05C0E5FFB9
:1009A00006C0E5FF07C0E5FF020EDBCF00F0030E37
:1009B000DBCF01F0040EDBCF02F0050EDBCF03F03E
:1009C000046A056A100E066E0134076A0736010EC6
:1009D000071600500026013604500426053607503D
:1009E000D8A404800350055C02E10250045C05E3D6
:1009F0000250045E0350055A0080062EE5D701C060
:100A0000F3FF0050E4CF07F0E4CF06F0E4CF05F0A9
:100A1000E4CF04F0E4CF03F0E4CF02F0E4CF01F040
:100A2000E4CF00F0E4CFD9FF120000C0E5FF01C021
:100A3000E5FF02C0E5FF03C0E5FF0001C707C7519E
:100A4000D8A43ED0080EC76F0001D951030B18E19E
:100A5000A0C000F0A1C001F0A2C002F0A3C003F04A
:100A6000002AD8B0012AD8B0022AD8B0032A0050F0
:100A70000001A06F0150A16F0250A26F0350A36F3D
:100A80000001D907D95114E1F00ED96F00EC04F040
:100A9000CAC000F000500CE01F0E005C05E300012E
:100AA000C807C8C09BFF04D00001C82BC8C09BFF6B
:100AB0000001C607C65104E13C0EC66F8FEC08F07A
:100AC000E4CF03F0E4CF02F0E4CF01F0E4CF00F094
:100AD000120000C0E5FF01C0E5FFD7C000F0016AC9
:100AE0000050F008006E000E0156E56A0A0EE56E31
:100AF0000150E56E0050E56E13EC03F0006E040E3D
:100B0000E12600500001CC6FD8C000F0016A00500F
:100B1000F008006E000E0156E56A040EE56E015005
:100B2000E56E0050E56E13EC03F0006E040EE12656
:100B300000500001CB6FD9C000F0016A0050F008EE
:100B4000006E000E0156E56A040EE56E0150E56E7A
:100B50000050E56E13EC03F0006E040EE126005029
:100B60000001CA6F48EC07F0E4CF01F0E4CF00F0D9
:100B70001200A00EF66E110EF76E000EF86E090050
:100B8000F550056E0900F550066E04E1056702D0C8
:100B900008EF06F00900F550006E0900F550016EEF
:100BA0000900F550026E09000900F550E96E0900D0
:100BB000F550EA6E090009000900F550036E0900BE
:100BC000F550046E09000900F6CF07F0F7CF08F0E2
:100BD000F8CF09F000C0F6FF01C0F7FF02C0F8FF30
:100BE000035002E1045009E00900F550EE6EF5CF24
:100BF0007EFF0306F6E20406F7D707C0F6FF08C03B
:100C0000F7FF09C0F8FF050601E20606C5EF05F08B
:100C10001200D9CFE5FFE1CFD9FF00C0E5FF01C049
:100C2000E5FF02C0E5FF03C0E5FF020EDBCF00F0E9
:100C3000030EDBCF01F0026A036A01BE0CD0015043
:100C400001260150005C03E2D890013204D0032A4F
:100C500003C002F0F2D70150005C02E30150005ED5
:100C6000D890013202C003F002060350F4E10050B4
:100C7000E4CF03F0E4CF02F0E4CF01F0E4CF00F0E2
:100C8000E4CFD9FF1200D9CFE5FFE1CFD9FF00C0F3
:100C9000E5FF01C0E5FF02C0E5FF240E0001C45DD1
:100CA00022E2A6B220D0C4C0A9FF000E016EA00EA1
:100CB000006E800E026EA9500026E86A0122E86AE2
:100CC000022200C0E9FF01C0F3FF02507EEC08F0F1
:100CD000A86EA69EA69CA684550EA76EAA0EA76E09
:100CE000A6820001C42BE4CF02F0E4CF01F0E4CFF0
:100CF00000F0E4CFD9FF1200D9CFE5FFE1CFD9FF53
:100D000000C0E5FF01C0E5FF02C0E5FF03C0E5FF4D
:100D100004C0E5FF020EDBCF00F0030EDBCF01F0D5
:100D2000026A080E036E800E0014046E0050002646
:100D3000025002260450D8A402800150025C03E352
:100D40000150025E0080032EEED70050E4CF04F085
:100D5000E4CF03F0E4CF02F0E4CF01F0E4CF00F001
:100D6000E4CFD9FF1200D9CFE5FFE1CFD9FF00C012
:100D7000E5FF01C0E5FF02C0E5FF020EDBCF00F09A
:100D80000A0EE56E00C0E5FF7CEC06F0016EE45053
:100D9000E4500138F00B026EF00E0214016E0A0EE0
:100DA000E56E00C0E5FF09EC06F0006EE450E4508B
:100DB0000F0E0016005001120150E4CF02F0E4CFF4
:100DC00001F0E4CF00F0E4CFD9FF1200E8CFE5FF57
:100DD000D8CFE5FFE0CFE5FFF3CFE5FFF4CFE5FFA8
:100DE000E9CFE5FFEACFE5FFFACFE5FFFBCFE5FF6F
:100DF0000001D307D35104E163EC01F015EC05F0D9
:100E0000CEEC07F043EC06F0F294E4CFFBFFE4CF26
:100E1000FAFFE4CFEAFFE4CFE9FFE4CFF4FFE4CF49
:100E2000F3FFE4CFE0FFE4CFD8FFE4CFE8FF10000A
:100E3000D9CFE5FFE1CFD9FF00C0E5FF01C0E5FF55
:100E400002C0E5FF020EDBCF00F0016A9384080EBA
:100E5000026E02500BE001500126938681A6FDD759
:100E600081A401D0018093960206F3D7005002E0DE
:100E7000939401D093849386939693840150E4CF06
:100E800002F0E4CF01F0E4CF00F0E4CFD9FF12008C
:100E9000C9EC08F0D7EC08F0D00EE56E22EC08F0B3
:100EA000E12A000EE56A22EC08F0E12A0001CA51AD
:100EB000E56EB3EC06F0E12AE56E22EC08F0E12ADB
:100EC0000001CB51E56EB3EC06F0E12AE56E22ECB1
:100ED00008F0E12A0001CC51E56EB3EC06F0E12AFE
:100EE000E56E22EC08F0E12AEAEC08F01200D9CF16
:100EF000E5FFE1CFD9FF00C0E5FF020EDBCF00F038
:100F0000C9EC08F0D7EC08F0D00EE56E22EC08F042
:100F1000E12A0050E56E22EC08F0E12AD7EC08F057
:100F2000D10EE56E22EC08F0E12A010EE56E18EC18
:100F300007F0006EE12AEAEC08F00050E4CF00F080
:100F4000E4CFD9FF120000C0E5FF01C0E5FF02C0F9
:100F5000E5FFA96A240EA95C1AE2A69EA69CA680BB
:100F6000000E016EA00E006E800E026EA9500026CB
:100F7000E86A0122E86A0222A8CFE5FF00C0E9FF83
:100F800001C0F3FF0250B6EC08F0A92AE3D7E4CF82
:100F900002F0E4CF01F0E4CF00F012000001D4072A
:100FA000D45102E1F00ED46F0001D507D55102E112
:100FB000F00ED56F0001D607D65102E1F00ED66FC4
:100FC0000001D7510001D45D02E28A9801D08A88DD
:100FD0000001D8510001D55D02E28A9201D08A82D7
:100FE0000001D9510001D65D02E28A9001D08A80C9
:100FF000120000C0E5FF01C0E5FFD9C000F0016AA2
:101000000050F008006E000E0156E56A3C0EE56ED9
:101010000150E56E0050E56E13EC03F0006E040E17
:10102000E126D8C001F0005001240001D86F3C0E29
:101030000001C66FF00E0001D96FE4CF01F0E4CFDC
:1010400000F01200D9CFE5FFE1CFD9FF00C0E5FFE6
:1010500001C0E5FF020EDBCF00F0080E016E01506B
:101060000BE000AE02D0938401D0939493869396C4
:10107000005000260106F3D793849386006A81B45A
:10108000002A93960050E4CF01F0E4CF00F0E4CFC3
:10109000D9FF1200D9CFE5FFE1CFD9FF00C0E5FFAE
:1010A00001C0E5FF020EDBCF00F00F0E0014016E51
:1010B000F00E001600380F0B0A0DF3CF00F00050B1
:1010C00001260150E4CF01F0E4CF00F0E4CFD9FFD6
:1010D0001200700ED36E926A936A7F0EC16EA3ECFB
:1010E00007F0E1EC08F0F2EC08F015EC00F0F294F7
:1010F000F28AF28EC80ED56EFFD71200E8AE04D089
:10110000F3CFEAFFEE501200E8BC08D0E9CFF6FFBB
:10111000F3CFF7FFF86E0900F5501200120000013E
:10112000D807D85102E1F00ED86F0001C507C551AC
:1011300004E1180EC56FC0EC08F0120010EE9FF02D
:1011400020EE9FF0F86AA68EA69CB9EC05F069EC3B
:1011500008F0FFD7E8060000E85007E000D000D014
:1011600000D000D00000E82EFAD71200E8AE05D07B
:10117000F3CFEAFFE4CFEEFF1200E8AC120012005A
:101180000001D707D75104E1F00ED76FFCEC08F04F
:101190001200938481B403D093969386FBD71200F8
:1011A0000100F2110000C40000000600000093845A
:1011B00093869394939612008A948A96EAEC08F0A8
:1011C0001200F6EC08F086EC02F01200A69EA69C37
:1011D000A68012009394938693841200F2B4E6EFF3
:1011E00006F010009390939293981200DCEC08F0B4
:0E11F000120024183C0800000001C46B12001D
:020000040030CA
:0E000000FFF8F2FEFFFFFAFFFFFFFFFFFFFF1A
:00000001FF
